{
  "contractName": "CollectionCentre",
  "abi": [
    {
      "inputs": [
        {
          "internalType": "address",
          "name": "_addressManager",
          "type": "address"
        }
      ],
      "payable": false,
      "stateMutability": "nonpayable",
      "type": "constructor"
    },
    {
      "constant": true,
      "inputs": [],
      "name": "collectionCentreCount",
      "outputs": [
        {
          "internalType": "uint256",
          "name": "",
          "type": "uint256"
        }
      ],
      "payable": false,
      "stateMutability": "view",
      "type": "function"
    },
    {
      "constant": true,
      "inputs": [],
      "name": "producerContractAddress",
      "outputs": [
        {
          "internalType": "address",
          "name": "",
          "type": "address"
        }
      ],
      "payable": false,
      "stateMutability": "view",
      "type": "function"
    },
    {
      "constant": true,
      "inputs": [],
      "name": "recycleUnitContractAddress",
      "outputs": [
        {
          "internalType": "address",
          "name": "",
          "type": "address"
        }
      ],
      "payable": false,
      "stateMutability": "view",
      "type": "function"
    },
    {
      "constant": false,
      "inputs": [
        {
          "internalType": "string",
          "name": "_name",
          "type": "string"
        }
      ],
      "name": "addCollectionCentre",
      "outputs": [],
      "payable": false,
      "stateMutability": "nonpayable",
      "type": "function"
    },
    {
      "constant": false,
      "inputs": [],
      "name": "createProducerInstance",
      "outputs": [],
      "payable": false,
      "stateMutability": "nonpayable",
      "type": "function"
    },
    {
      "constant": false,
      "inputs": [],
      "name": "createRecycleUnitInstance",
      "outputs": [],
      "payable": false,
      "stateMutability": "nonpayable",
      "type": "function"
    },
    {
      "constant": false,
      "inputs": [],
      "name": "receiveItemProducer",
      "outputs": [],
      "payable": false,
      "stateMutability": "nonpayable",
      "type": "function"
    },
    {
      "constant": false,
      "inputs": [],
      "name": "sendItemRecycleUnit",
      "outputs": [],
      "payable": false,
      "stateMutability": "nonpayable",
      "type": "function"
    }
  ],
  "bytecode": "0x608060405234801561001057600080fd5b5060405161084e38038061084e8339818101604052602081101561003357600080fd5b810190808051906020019092919050505033600160006101000a81548173ffffffffffffffffffffffffffffffffffffffff021916908373ffffffffffffffffffffffffffffffffffffffff16021790555080600560006101000a81548173ffffffffffffffffffffffffffffffffffffffff021916908373ffffffffffffffffffffffffffffffffffffffff16021790555050610778806100d66000396000f3fe608060405234801561001057600080fd5b50600436106100885760003560e01c80635eec5a821161005b5780635eec5a82146101a6578063976e0a61146101b0578063b61f46b8146101ba578063bd0a23911461020457610088565b806304a883721461008d578063083e37131461009757806311c9a94e146100a15780631baa4e76146100eb575b600080fd5b610095610222565b005b61009f610400565b005b6100a9610402565b604051808273ffffffffffffffffffffffffffffffffffffffff1673ffffffffffffffffffffffffffffffffffffffff16815260200191505060405180910390f35b6101a46004803603602081101561010157600080fd5b810190808035906020019064010000000081111561011e57600080fd5b82018360208201111561013057600080fd5b8035906020019184600183028401116401000000008311171561015257600080fd5b91908080601f016020809104026020016040519081016040528093929190818152602001838380828437600081840152601f19601f820116905080830192505050505050509192919290505050610428565b005b6101ae610492565b005b6101b8610494565b005b6101c2610672565b604051808273ffffffffffffffffffffffffffffffffffffffff1673ffffffffffffffffffffffffffffffffffffffff16815260200191505060405180910390f35b61020c610698565b6040518082815260200191505060405180910390f35b600160009054906101000a900473ffffffffffffffffffffffffffffffffffffffff1673ffffffffffffffffffffffffffffffffffffffff163373ffffffffffffffffffffffffffffffffffffffff161461027c57600080fd5b600560009054906101000a900473ffffffffffffffffffffffffffffffffffffffff1673ffffffffffffffffffffffffffffffffffffffff1663bf40fac16040518163ffffffff1660e01b815260040180806020018281038252600b8152602001807f52656379636c65556e697400000000000000000000000000000000000000000081525060200191505060206040518083038186803b15801561032057600080fd5b505afa158015610334573d6000803e3d6000fd5b505050506040513d602081101561034a57600080fd5b8101908080519060200190929190505050600460006101000a81548173ffffffffffffffffffffffffffffffffffffffff021916908373ffffffffffffffffffffffffffffffffffffffff160217905550600460009054906101000a900473ffffffffffffffffffffffffffffffffffffffff16600760006101000a81548173ffffffffffffffffffffffffffffffffffffffff021916908373ffffffffffffffffffffffffffffffffffffffff160217905550565b565b600360009054906101000a900473ffffffffffffffffffffffffffffffffffffffff1681565b6002600081548092919060010191905055506040518060400160405280600254815260200182815250600080600254815260200190815260200160002060008201518160000155602082015181600101908051906020019061048b92919061069e565b5090505050565b565b600160009054906101000a900473ffffffffffffffffffffffffffffffffffffffff1673ffffffffffffffffffffffffffffffffffffffff163373ffffffffffffffffffffffffffffffffffffffff16146104ee57600080fd5b600560009054906101000a900473ffffffffffffffffffffffffffffffffffffffff1673ffffffffffffffffffffffffffffffffffffffff1663bf40fac16040518163ffffffff1660e01b81526004018080602001828103825260088152602001807f50726f647563657200000000000000000000000000000000000000000000000081525060200191505060206040518083038186803b15801561059257600080fd5b505afa1580156105a6573d6000803e3d6000fd5b505050506040513d60208110156105bc57600080fd5b8101908080519060200190929190505050600360006101000a81548173ffffffffffffffffffffffffffffffffffffffff021916908373ffffffffffffffffffffffffffffffffffffffff160217905550600360009054906101000a900473ffffffffffffffffffffffffffffffffffffffff16600660006101000a81548173ffffffffffffffffffffffffffffffffffffffff021916908373ffffffffffffffffffffffffffffffffffffffff160217905550565b600460009054906101000a900473ffffffffffffffffffffffffffffffffffffffff1681565b60025481565b828054600181600116156101000203166002900490600052602060002090601f016020900481019282601f106106df57805160ff191683800117855561070d565b8280016001018555821561070d579182015b8281111561070c5782518255916020019190600101906106f1565b5b50905061071a919061071e565b5090565b61074091905b8082111561073c576000816000905550600101610724565b5090565b9056fea265627a7a72315820b621c000d9ee0aebf7fed5faf272cbba93d4c1dc5cbe04c63667fd5e086fbb8464736f6c63430005100032",
  "source": "pragma solidity ^0.5.16;\nimport \"./AddressManager.sol\";\nimport \"./Producer.sol\";\nimport \"./RecycleUnit.sol\";\n\ncontract CollectionCentre{\n\tmapping(uint => CollectionCentreDetails) CollectionCentres;\n    address owner;\n    uint public collectionCentreCount;\n    address public producerContractAddress;\n    address public recycleUnitContractAddress;\n    AddressManager amInstance;\n    Producer producerInstance;\n    RecycleUnit recycleUnitInstance;\n\n    modifier onlyOwner(){\n        require(msg.sender == owner);\n        _;\n    }\n\n    constructor(address _addressManager) public{\n        owner = msg.sender;\n        amInstance = AddressManager(address(_addressManager));\n    }\n\n    struct CollectionCentreDetails{\n        uint _id;\n        string _name;\n    }\n\n    function addCollectionCentre(string memory _name) public{\n        collectionCentreCount++;\n        CollectionCentres[collectionCentreCount] = CollectionCentreDetails(collectionCentreCount, _name);\n    }\n\n    function createProducerInstance() public onlyOwner{\n        producerContractAddress = amInstance.getAddress(\"Producer\");\n        producerInstance = Producer(address(producerContractAddress));\n    }\n\n    function createRecycleUnitInstance() public onlyOwner{\n        recycleUnitContractAddress = amInstance.getAddress(\"RecycleUnit\");\n        recycleUnitInstance = RecycleUnit(address(recycleUnitContractAddress));\n    }\n\n    function receiveItemProducer() public{\n\n    }\n    function sendItemRecycleUnit() public{\n\n    \n    }\n}\n",
  "sourcePath": "/home/dkhost/Desktop/project_e-waste/contracts/CollectionCentre.sol",
  "compiler": {
    "name": "solc",
    "version": "0.5.16+commit.9c3226ce.Emscripten.clang"
  },
  "schemaVersion": "3.0.23",
  "updatedAt": "2020-03-04T08:11:32.480Z",
  "networkType": "ethereum",
  "devdoc": {
    "methods": {}
  },
  "userdoc": {
    "methods": {}
  }
}