{
  "contractName": "Consumer",
  "abi": [
    {
      "inputs": [
        {
          "internalType": "address",
          "name": "_addressManager",
          "type": "address"
        }
      ],
      "payable": false,
      "stateMutability": "nonpayable",
      "type": "constructor"
    },
    {
      "constant": true,
      "inputs": [],
      "name": "consumerCount",
      "outputs": [
        {
          "internalType": "uint256",
          "name": "",
          "type": "uint256"
        }
      ],
      "payable": false,
      "stateMutability": "view",
      "type": "function"
    },
    {
      "constant": true,
      "inputs": [],
      "name": "retailerContractAddress",
      "outputs": [
        {
          "internalType": "address",
          "name": "",
          "type": "address"
        }
      ],
      "payable": false,
      "stateMutability": "view",
      "type": "function"
    },
    {
      "constant": false,
      "inputs": [
        {
          "internalType": "string",
          "name": "_name",
          "type": "string"
        }
      ],
      "name": "addConsumer",
      "outputs": [],
      "payable": false,
      "stateMutability": "nonpayable",
      "type": "function"
    },
    {
      "constant": false,
      "inputs": [],
      "name": "createRetailerInstance",
      "outputs": [],
      "payable": true,
      "stateMutability": "payable",
      "type": "function"
    },
    {
      "constant": false,
      "inputs": [],
      "name": "sellWaste",
      "outputs": [],
      "payable": false,
      "stateMutability": "nonpayable",
      "type": "function"
    },
    {
      "constant": false,
      "inputs": [],
      "name": "receivePayment",
      "outputs": [],
      "payable": true,
      "stateMutability": "payable",
      "type": "function"
    }
  ],
  "bytecode": "0x608060405234801561001057600080fd5b506040516105f73803806105f78339818101604052602081101561003357600080fd5b810190808051906020019092919050505033600360006101000a81548173ffffffffffffffffffffffffffffffffffffffff021916908373ffffffffffffffffffffffffffffffffffffffff16021790555080600460006101000a81548173ffffffffffffffffffffffffffffffffffffffff021916908373ffffffffffffffffffffffffffffffffffffffff16021790555050610521806100d66000396000f3fe6080604052600436106100555760003560e01c80636415c8561461005a578063835c19f3146100b15780639d7ee697146100bb578063c078c1b5146100c5578063c5d2af02146100f0578063c9eb0de6146101b8575b600080fd5b34801561006657600080fd5b5061006f6101cf565b604051808273ffffffffffffffffffffffffffffffffffffffff1673ffffffffffffffffffffffffffffffffffffffff16815260200191505060405180910390f35b6100b96101f5565b005b6100c36101f7565b005b3480156100d157600080fd5b506100da6103d5565b6040518082815260200191505060405180910390f35b3480156100fc57600080fd5b506101b66004803603602081101561011357600080fd5b810190808035906020019064010000000081111561013057600080fd5b82018360208201111561014257600080fd5b8035906020019184600183028401116401000000008311171561016457600080fd5b91908080601f016020809104026020016040519081016040528093929190818152602001838380828437600081840152601f19601f8201169050808301925050505050505091929192905050506103db565b005b3480156101c457600080fd5b506101cd610445565b005b600260009054906101000a900473ffffffffffffffffffffffffffffffffffffffff1681565b565b600360009054906101000a900473ffffffffffffffffffffffffffffffffffffffff1673ffffffffffffffffffffffffffffffffffffffff163373ffffffffffffffffffffffffffffffffffffffff161461025157600080fd5b600460009054906101000a900473ffffffffffffffffffffffffffffffffffffffff1673ffffffffffffffffffffffffffffffffffffffff1663bf40fac16040518163ffffffff1660e01b81526004018080602001828103825260088152602001807f52657461696c657200000000000000000000000000000000000000000000000081525060200191505060206040518083038186803b1580156102f557600080fd5b505afa158015610309573d6000803e3d6000fd5b505050506040513d602081101561031f57600080fd5b8101908080519060200190929190505050600260006101000a81548173ffffffffffffffffffffffffffffffffffffffff021916908373ffffffffffffffffffffffffffffffffffffffff160217905550600260009054906101000a900473ffffffffffffffffffffffffffffffffffffffff16600560006101000a81548173ffffffffffffffffffffffffffffffffffffffff021916908373ffffffffffffffffffffffffffffffffffffffff160217905550565b60015481565b6001600081548092919060010191905055506040518060400160405280600154815260200182815250600080600154815260200190815260200160002060008201518160000155602082015181600101908051906020019061043e929190610447565b5090505050565b565b828054600181600116156101000203166002900490600052602060002090601f016020900481019282601f1061048857805160ff19168380011785556104b6565b828001600101855582156104b6579182015b828111156104b557825182559160200191906001019061049a565b5b5090506104c391906104c7565b5090565b6104e991905b808211156104e55760008160009055506001016104cd565b5090565b9056fea265627a7a723158201eab7af9bfd5312f6fc95f5adb8901f5345ef477022b025eca1ed5fa1e14de2964736f6c634300050c0032",
  "source": "pragma solidity >=0.4.21 <0.7.0;\r\nimport \"./AddressManager.sol\";\r\nimport \"./Retailer.sol\";\r\n\r\ncontract Consumer{\r\n\r\n    mapping(uint => ConsumerDetails) consumers;\r\n    uint public consumerCount;\r\n    address public retailerContractAddress;\r\n    address owner;\r\n    AddressManager amInstance;\r\n    Retailer retailerInstance;\r\n\r\n    modifier onlyOwner(){\r\n        require(msg.sender == owner);\r\n        _;\r\n    }\r\n\r\n    constructor(address _addressManager) public{\r\n        owner = msg.sender;\r\n        amInstance = AddressManager(address(_addressManager));\r\n    }\r\n\r\n    struct ConsumerDetails{\r\n        uint _id;\r\n        string _name;\r\n    }\r\n\r\n    function addConsumer(string memory _name) public{\r\n        consumerCount++;\r\n        consumers[consumerCount] = ConsumerDetails(consumerCount, _name);\r\n    }\r\n\r\n    function createRetailerInstance() public onlyOwner payable{\r\n        retailerContractAddress = amInstance.getAddress(\"Retailer\");\r\n        retailerInstance = Retailer(address(retailerContractAddress));\r\n    }\r\n\r\n    function sellWaste() public{\r\n        //TODO: code for selling waste \r\n        \r\n        //receivePayment();\r\n    }\r\n\r\n    function receivePayment() public payable{\r\n\r\n    }\r\n}\r\n",
  "sourcePath": "C:\\Heramb\\e-waste-management-using-blockchain\\contracts\\Consumer.sol",
  "compiler": {
    "name": "solc",
    "version": "0.5.12+commit.7709ece9.Emscripten.clang"
  },
  "schemaVersion": "3.0.19",
  "updatedAt": "2020-03-05T14:33:58.627Z",
  "devdoc": {
    "methods": {}
  },
  "userdoc": {
    "methods": {}
  }
}