{
  "contractName": "Consumer",
  "abi": [
    {
      "inputs": [
        {
          "internalType": "address",
          "name": "_addressManager",
          "type": "address"
        }
      ],
      "payable": false,
      "stateMutability": "nonpayable",
      "type": "constructor"
    },
    {
      "constant": true,
      "inputs": [],
      "name": "consumerCount",
      "outputs": [
        {
          "internalType": "uint256",
          "name": "",
          "type": "uint256"
        }
      ],
      "payable": false,
      "stateMutability": "view",
      "type": "function"
    },
    {
      "constant": true,
      "inputs": [],
      "name": "retailerContractAddress",
      "outputs": [
        {
          "internalType": "address",
          "name": "",
          "type": "address"
        }
      ],
      "payable": false,
      "stateMutability": "view",
      "type": "function"
    },
    {
      "constant": false,
      "inputs": [
        {
          "internalType": "string",
          "name": "_name",
          "type": "string"
        }
      ],
      "name": "addConsumer",
      "outputs": [],
      "payable": false,
      "stateMutability": "nonpayable",
      "type": "function"
    },
    {
      "constant": false,
      "inputs": [],
      "name": "createRetailerInstance",
      "outputs": [],
      "payable": true,
      "stateMutability": "payable",
      "type": "function"
    },
    {
      "constant": false,
      "inputs": [],
      "name": "sellWaste",
      "outputs": [],
      "payable": false,
      "stateMutability": "nonpayable",
      "type": "function"
    },
    {
      "constant": false,
      "inputs": [],
      "name": "receivePayment",
      "outputs": [],
      "payable": true,
      "stateMutability": "payable",
      "type": "function"
    }
  ],
  "bytecode": "0x608060405234801561001057600080fd5b506040516105f73803806105f78339818101604052602081101561003357600080fd5b810190808051906020019092919050505033600360006101000a81548173ffffffffffffffffffffffffffffffffffffffff021916908373ffffffffffffffffffffffffffffffffffffffff16021790555080600460006101000a81548173ffffffffffffffffffffffffffffffffffffffff021916908373ffffffffffffffffffffffffffffffffffffffff16021790555050610521806100d66000396000f3fe6080604052600436106100555760003560e01c80636415c8561461005a578063835c19f3146100b15780639d7ee697146100bb578063c078c1b5146100c5578063c5d2af02146100f0578063c9eb0de6146101b8575b600080fd5b34801561006657600080fd5b5061006f6101cf565b604051808273ffffffffffffffffffffffffffffffffffffffff1673ffffffffffffffffffffffffffffffffffffffff16815260200191505060405180910390f35b6100b96101f5565b005b6100c36101f7565b005b3480156100d157600080fd5b506100da6103d5565b6040518082815260200191505060405180910390f35b3480156100fc57600080fd5b506101b66004803603602081101561011357600080fd5b810190808035906020019064010000000081111561013057600080fd5b82018360208201111561014257600080fd5b8035906020019184600183028401116401000000008311171561016457600080fd5b91908080601f016020809104026020016040519081016040528093929190818152602001838380828437600081840152601f19601f8201169050808301925050505050505091929192905050506103db565b005b3480156101c457600080fd5b506101cd610445565b005b600260009054906101000a900473ffffffffffffffffffffffffffffffffffffffff1681565b565b600360009054906101000a900473ffffffffffffffffffffffffffffffffffffffff1673ffffffffffffffffffffffffffffffffffffffff163373ffffffffffffffffffffffffffffffffffffffff161461025157600080fd5b600460009054906101000a900473ffffffffffffffffffffffffffffffffffffffff1673ffffffffffffffffffffffffffffffffffffffff1663bf40fac16040518163ffffffff1660e01b81526004018080602001828103825260088152602001807f52657461696c657200000000000000000000000000000000000000000000000081525060200191505060206040518083038186803b1580156102f557600080fd5b505afa158015610309573d6000803e3d6000fd5b505050506040513d602081101561031f57600080fd5b8101908080519060200190929190505050600260006101000a81548173ffffffffffffffffffffffffffffffffffffffff021916908373ffffffffffffffffffffffffffffffffffffffff160217905550600260009054906101000a900473ffffffffffffffffffffffffffffffffffffffff16600560006101000a81548173ffffffffffffffffffffffffffffffffffffffff021916908373ffffffffffffffffffffffffffffffffffffffff160217905550565b60015481565b6001600081548092919060010191905055506040518060400160405280600154815260200182815250600080600154815260200190815260200160002060008201518160000155602082015181600101908051906020019061043e929190610447565b5090505050565b565b828054600181600116156101000203166002900490600052602060002090601f016020900481019282601f1061048857805160ff19168380011785556104b6565b828001600101855582156104b6579182015b828111156104b557825182559160200191906001019061049a565b5b5090506104c391906104c7565b5090565b6104e991905b808211156104e55760008160009055506001016104cd565b5090565b9056fea265627a7a72315820ae56e9f9d56ba0ba18ab47294c3300204011e43188b0fab65f40c7f6d40d2b0f64736f6c63430005100032",
  "source": "pragma solidity >=0.4.21 <0.7.0;\nimport \"./AddressManager.sol\";\nimport \"./Retailer.sol\";\n\ncontract Consumer{\n\n    mapping(uint => ConsumerDetails) consumers;\n    uint public consumerCount;\n    address public retailerContractAddress;\n    address owner;\n    AddressManager amInstance;\n    Retailer retailerInstance;\n\n    modifier onlyOwner(){\n        require(msg.sender == owner);\n        _;\n    }\n\n    constructor(address _addressManager) public{\n        owner = msg.sender;\n        amInstance = AddressManager(address(_addressManager));\n    }\n\n    struct ConsumerDetails{\n        uint _id;\n        string _name;\n    }\n\n    function addConsumer(string memory _name) public{\n        consumerCount++;\n        consumers[consumerCount] = ConsumerDetails(consumerCount, _name);\n    }\n\n    function createRetailerInstance() public onlyOwner payable{\n        retailerContractAddress = amInstance.getAddress(\"Retailer\");\n        retailerInstance = Retailer(address(retailerContractAddress));\n    }\n\n    function sellWaste() public{\n        //TODO: code for selling waste \n        \n        //receivePayment();\n    }\n\n    function receivePayment() public payable{\n\n    }\n}\n",
  "sourcePath": "/home/dkhost/Desktop/project_e-waste/contracts/Consumer.sol",
  "compiler": {
    "name": "solc",
    "version": "0.5.16+commit.9c3226ce.Emscripten.clang"
  },
  "schemaVersion": "3.0.23",
  "updatedAt": "2020-03-05T15:02:50.821Z",
  "networkType": "ethereum",
  "devdoc": {
    "methods": {}
  },
  "userdoc": {
    "methods": {}
  }
}