{
  "contractName": "Producer",
  "abi": [
    {
      "inputs": [
        {
          "internalType": "address",
          "name": "_addressManager",
          "type": "address"
        }
      ],
      "payable": false,
      "stateMutability": "nonpayable",
      "type": "constructor"
    },
    {
      "constant": true,
      "inputs": [],
      "name": "collectionCentreContractAddress",
      "outputs": [
        {
          "internalType": "address",
          "name": "",
          "type": "address"
        }
      ],
      "payable": false,
      "stateMutability": "view",
      "type": "function"
    },
    {
      "constant": true,
      "inputs": [
        {
          "internalType": "uint256",
          "name": "",
          "type": "uint256"
        }
      ],
      "name": "productStock",
      "outputs": [
        {
          "internalType": "string",
          "name": "name",
          "type": "string"
        },
        {
          "internalType": "string",
          "name": "typeOfProduct",
          "type": "string"
        }
      ],
      "payable": false,
      "stateMutability": "view",
      "type": "function"
    },
    {
      "constant": true,
      "inputs": [],
      "name": "recycleUnitContractAddress",
      "outputs": [
        {
          "internalType": "address",
          "name": "",
          "type": "address"
        }
      ],
      "payable": false,
      "stateMutability": "view",
      "type": "function"
    },
    {
      "constant": true,
      "inputs": [],
      "name": "retailerContractAddress",
      "outputs": [
        {
          "internalType": "address",
          "name": "",
          "type": "address"
        }
      ],
      "payable": false,
      "stateMutability": "view",
      "type": "function"
    },
    {
      "constant": true,
      "inputs": [
        {
          "internalType": "uint256",
          "name": "",
          "type": "uint256"
        }
      ],
      "name": "soldHistory",
      "outputs": [
        {
          "internalType": "address",
          "name": "",
          "type": "address"
        }
      ],
      "payable": false,
      "stateMutability": "view",
      "type": "function"
    },
    {
      "constant": false,
      "inputs": [
        {
          "internalType": "address",
          "name": "_producer",
          "type": "address"
        }
      ],
      "name": "setProducerAddress",
      "outputs": [],
      "payable": false,
      "stateMutability": "nonpayable",
      "type": "function"
    },
    {
      "constant": false,
      "inputs": [
        {
          "internalType": "string",
          "name": "_name",
          "type": "string"
        },
        {
          "internalType": "string",
          "name": "_type",
          "type": "string"
        }
      ],
      "name": "addProduct",
      "outputs": [],
      "payable": false,
      "stateMutability": "nonpayable",
      "type": "function"
    },
    {
      "constant": false,
      "inputs": [],
      "name": "createRetailerInstance",
      "outputs": [],
      "payable": false,
      "stateMutability": "nonpayable",
      "type": "function"
    },
    {
      "constant": false,
      "inputs": [],
      "name": "createRecycleUnitInstance",
      "outputs": [],
      "payable": false,
      "stateMutability": "nonpayable",
      "type": "function"
    },
    {
      "constant": false,
      "inputs": [],
      "name": "createCollectionCentreInstance",
      "outputs": [],
      "payable": false,
      "stateMutability": "nonpayable",
      "type": "function"
    },
    {
      "constant": false,
      "inputs": [
        {
          "internalType": "address",
          "name": "_addressRetailer",
          "type": "address"
        },
        {
          "internalType": "uint256",
          "name": "_productId",
          "type": "uint256"
        }
      ],
      "name": "sellToRetailer",
      "outputs": [],
      "payable": true,
      "stateMutability": "payable",
      "type": "function"
    }
  ],
  "bytecode": "0x608060405234801561001057600080fd5b506040516110913803806110918339818101604052602081101561003357600080fd5b810190808051906020019092919050505033600260006101000a81548173ffffffffffffffffffffffffffffffffffffffff021916908373ffffffffffffffffffffffffffffffffffffffff16021790555080600460006101000a81548173ffffffffffffffffffffffffffffffffffffffff021916908373ffffffffffffffffffffffffffffffffffffffff16021790555050610fbb806100d66000396000f3fe60806040526004361061009c5760003560e01c80639d7ee697116100645780639d7ee697146102f8578063b61f46b81461030f578063bd1f55e014610366578063bf0001b1146103b7578063ca2efb551461040e578063e11e79061461056d5761009c565b806304a88372146100a15780630993f45b146100b85780635eba8401146101335780636415c856146102535780638cc8de6c146102aa575b600080fd5b3480156100ad57600080fd5b506100b6610584565b005b3480156100c457600080fd5b506100f1600480360360208110156100db57600080fd5b8101908080359060200190929190505050610762565b604051808273ffffffffffffffffffffffffffffffffffffffff1673ffffffffffffffffffffffffffffffffffffffff16815260200191505060405180910390f35b34801561013f57600080fd5b5061016c6004803603602081101561015657600080fd5b8101908080359060200190929190505050610795565b604051808060200180602001838103835285818151815260200191508051906020019080838360005b838110156101b0578082015181840152602081019050610195565b50505050905090810190601f1680156101dd5780820380516001836020036101000a031916815260200191505b50838103825284818151815260200191508051906020019080838360005b838110156102165780820151818401526020810190506101fb565b50505050905090810190601f1680156102435780820380516001836020036101000a031916815260200191505b5094505050505060405180910390f35b34801561025f57600080fd5b506102686108e9565b604051808273ffffffffffffffffffffffffffffffffffffffff1673ffffffffffffffffffffffffffffffffffffffff16815260200191505060405180910390f35b6102f6600480360360408110156102c057600080fd5b81019080803573ffffffffffffffffffffffffffffffffffffffff1690602001909291908035906020019092919050505061090f565b005b34801561030457600080fd5b5061030d610964565b005b34801561031b57600080fd5b50610324610b42565b604051808273ffffffffffffffffffffffffffffffffffffffff1673ffffffffffffffffffffffffffffffffffffffff16815260200191505060405180910390f35b34801561037257600080fd5b506103b56004803603602081101561038957600080fd5b81019080803573ffffffffffffffffffffffffffffffffffffffff169060200190929190505050610b68565b005b3480156103c357600080fd5b506103cc610c06565b604051808273ffffffffffffffffffffffffffffffffffffffff1673ffffffffffffffffffffffffffffffffffffffff16815260200191505060405180910390f35b34801561041a57600080fd5b5061056b6004803603604081101561043157600080fd5b810190808035906020019064010000000081111561044e57600080fd5b82018360208201111561046057600080fd5b8035906020019184600183028401116401000000008311171561048257600080fd5b91908080601f016020809104026020016040519081016040528093929190818152602001838380828437600081840152601f19601f820116905080830192505050505050509192919290803590602001906401000000008111156104e557600080fd5b8201836020820111156104f757600080fd5b8035906020019184600183028401116401000000008311171561051957600080fd5b91908080601f016020809104026020016040519081016040528093929190818152602001838380828437600081840152601f19601f820116905080830192505050505050509192919290505050610c2c565b005b34801561057957600080fd5b50610582610d03565b005b600260009054906101000a900473ffffffffffffffffffffffffffffffffffffffff1673ffffffffffffffffffffffffffffffffffffffff163373ffffffffffffffffffffffffffffffffffffffff16146105de57600080fd5b600460009054906101000a900473ffffffffffffffffffffffffffffffffffffffff1673ffffffffffffffffffffffffffffffffffffffff1663bf40fac16040518163ffffffff1660e01b815260040180806020018281038252600b8152602001807f52656379636c65556e697400000000000000000000000000000000000000000081525060200191505060206040518083038186803b15801561068257600080fd5b505afa158015610696573d6000803e3d6000fd5b505050506040513d60208110156106ac57600080fd5b8101908080519060200190929190505050600860006101000a81548173ffffffffffffffffffffffffffffffffffffffff021916908373ffffffffffffffffffffffffffffffffffffffff160217905550600860009054906101000a900473ffffffffffffffffffffffffffffffffffffffff16600c60006101000a81548173ffffffffffffffffffffffffffffffffffffffff021916908373ffffffffffffffffffffffffffffffffffffffff160217905550565b60006020528060005260406000206000915054906101000a900473ffffffffffffffffffffffffffffffffffffffff1681565b6001602052806000526040600020600091509050806000018054600181600116156101000203166002900480601f0160208091040260200160405190810160405280929190818152602001828054600181600116156101000203166002900480156108415780601f1061081657610100808354040283529160200191610841565b820191906000526020600020905b81548152906001019060200180831161082457829003601f168201915b505050505090806001018054600181600116156101000203166002900480601f0160208091040260200160405190810160405280929190818152602001828054600181600116156101000203166002900480156108df5780601f106108b4576101008083540402835291602001916108df565b820191906000526020600020905b8154815290600101906020018083116108c257829003601f168201915b5050505050905082565b600760009054906101000a900473ffffffffffffffffffffffffffffffffffffffff1681565b8160008083815260200190815260200160002060006101000a81548173ffffffffffffffffffffffffffffffffffffffff021916908373ffffffffffffffffffffffffffffffffffffffff1602179055505050565b600260009054906101000a900473ffffffffffffffffffffffffffffffffffffffff1673ffffffffffffffffffffffffffffffffffffffff163373ffffffffffffffffffffffffffffffffffffffff16146109be57600080fd5b600460009054906101000a900473ffffffffffffffffffffffffffffffffffffffff1673ffffffffffffffffffffffffffffffffffffffff1663bf40fac16040518163ffffffff1660e01b81526004018080602001828103825260088152602001807f52657461696c657200000000000000000000000000000000000000000000000081525060200191505060206040518083038186803b158015610a6257600080fd5b505afa158015610a76573d6000803e3d6000fd5b505050506040513d6020811015610a8c57600080fd5b8101908080519060200190929190505050600760006101000a81548173ffffffffffffffffffffffffffffffffffffffff021916908373ffffffffffffffffffffffffffffffffffffffff160217905550600760009054906101000a900473ffffffffffffffffffffffffffffffffffffffff16600a60006101000a81548173ffffffffffffffffffffffffffffffffffffffff021916908373ffffffffffffffffffffffffffffffffffffffff160217905550565b600860009054906101000a900473ffffffffffffffffffffffffffffffffffffffff1681565b600260009054906101000a900473ffffffffffffffffffffffffffffffffffffffff1673ffffffffffffffffffffffffffffffffffffffff163373ffffffffffffffffffffffffffffffffffffffff1614610bc257600080fd5b80600360006101000a81548173ffffffffffffffffffffffffffffffffffffffff021916908373ffffffffffffffffffffffffffffffffffffffff16021790555050565b600960009054906101000a900473ffffffffffffffffffffffffffffffffffffffff1681565b600360009054906101000a900473ffffffffffffffffffffffffffffffffffffffff1673ffffffffffffffffffffffffffffffffffffffff163373ffffffffffffffffffffffffffffffffffffffff1614610c8657600080fd5b6005600081548092919060010191905055506040518060400160405280838152602001828152506001600060055481526020019081526020016000206000820151816000019080519060200190610cde929190610ee1565b506020820151816001019080519060200190610cfb929190610ee1565b509050505050565b600260009054906101000a900473ffffffffffffffffffffffffffffffffffffffff1673ffffffffffffffffffffffffffffffffffffffff163373ffffffffffffffffffffffffffffffffffffffff1614610d5d57600080fd5b600460009054906101000a900473ffffffffffffffffffffffffffffffffffffffff1673ffffffffffffffffffffffffffffffffffffffff1663bf40fac16040518163ffffffff1660e01b81526004018080602001828103825260108152602001807f436f6c6c656374696f6e43656e7472650000000000000000000000000000000081525060200191505060206040518083038186803b158015610e0157600080fd5b505afa158015610e15573d6000803e3d6000fd5b505050506040513d6020811015610e2b57600080fd5b8101908080519060200190929190505050600960006101000a81548173ffffffffffffffffffffffffffffffffffffffff021916908373ffffffffffffffffffffffffffffffffffffffff160217905550600960009054906101000a900473ffffffffffffffffffffffffffffffffffffffff16600b60006101000a81548173ffffffffffffffffffffffffffffffffffffffff021916908373ffffffffffffffffffffffffffffffffffffffff160217905550565b828054600181600116156101000203166002900490600052602060002090601f016020900481019282601f10610f2257805160ff1916838001178555610f50565b82800160010185558215610f50579182015b82811115610f4f578251825591602001919060010190610f34565b5b509050610f5d9190610f61565b5090565b610f8391905b80821115610f7f576000816000905550600101610f67565b5090565b9056fea265627a7a723158207c0086b1fe03408ddfea450d1f3b731f1908b176a3f4769fd23ad7158bc3ca8c64736f6c63430005100032",
  "source": "pragma solidity ^0.5.0;\n\nimport \"./AddressManager.sol\";\nimport \"./Consumer.sol\";\nimport \"./CollectionCentre.sol\";\nimport \"./Retailer.sol\";\nimport \"./RecycleUnit.sol\";\n \ncontract Producer {\n\n\tmapping (uint => address) public soldHistory;\n\tmapping (uint => Product)public productStock;\n\t\n\taddress owner;\n\taddress producer;\n\tAddressManager amInstance;\n\tuint productCount;\n\tuint balanceOfProducer;\n\taddress public retailerContractAddress;\n\taddress public recycleUnitContractAddress;\n\taddress public collectionCentreContractAddress;\n\tRetailer retailerInstance;\n\tCollectionCentre collectionCentreInstance;\n\tRecycleUnit recycleUnitInstance;\n\n\tmodifier onlyOwner(){\n        require(msg.sender == owner);\n        _;\n    }\n\n    modifier onlyProducer(){\n        require(msg.sender == producer);\n        _;\n    }\n\n    struct Product {\n    \tstring name;\n    \tstring typeOfProduct;\n    }\n    \n\t\n\tconstructor(address _addressManager) public {\n    \towner=msg.sender;\n    \tamInstance=AddressManager(address(_addressManager));\n\t}\n\n\tfunction setProducerAddress (address _producer) public onlyOwner {\n\t\tproducer=_producer;\n\t}\n\t\n\n\tfunction addProduct (string memory _name,string memory _type) public onlyProducer{\n\t\tproductCount++;\n\t\tproductStock[productCount]=Product(_name,_type);\n\t}\n\n\tfunction createRetailerInstance() public onlyOwner{\n        retailerContractAddress = amInstance.getAddress(\"Retailer\");\n        retailerInstance = Retailer(address(retailerContractAddress));\n    }\n    \n    function createRecycleUnitInstance() public onlyOwner{\n        recycleUnitContractAddress = amInstance.getAddress(\"RecycleUnit\");\n        recycleUnitInstance = RecycleUnit(address(recycleUnitContractAddress));\n    }\n    \n    function createCollectionCentreInstance() public onlyOwner{\n        collectionCentreContractAddress = amInstance.getAddress(\"CollectionCentre\");\n        collectionCentreInstance = CollectionCentre(address(collectionCentreContractAddress));\n    }\n\t\n\tfunction sellToRetailer(address _addressRetailer,uint _productId) public payable{\n// \t\tuint amount=msg.value;\n// \t\tbalanceOfProducer+=amount;\n\n\t\t\n\t\t\n\t\tsoldHistory[_productId]=_addressRetailer;\n\t}\n\n\n\n\t\n\n}\n",
  "sourcePath": "/home/dkhost/Desktop/project_e-waste/contracts/Producer.sol",
  "compiler": {
    "name": "solc",
    "version": "0.5.16+commit.9c3226ce.Emscripten.clang"
  },
  "schemaVersion": "3.0.23",
  "updatedAt": "2020-03-04T08:11:32.488Z",
  "networkType": "ethereum",
  "devdoc": {
    "methods": {}
  },
  "userdoc": {
    "methods": {}
  }
}