{
  "contractName": "RecycleUnit",
  "abi": [
    {
      "inputs": [
        {
          "internalType": "address",
          "name": "_addressManager",
          "type": "address"
        }
      ],
      "payable": false,
      "stateMutability": "nonpayable",
      "type": "constructor"
    },
    {
      "constant": true,
      "inputs": [],
      "name": "RecycleUnitCount",
      "outputs": [
        {
          "internalType": "uint256",
          "name": "",
          "type": "uint256"
        }
      ],
      "payable": false,
      "stateMutability": "view",
      "type": "function"
    },
    {
      "constant": true,
      "inputs": [],
      "name": "collectionCentreContractAddress",
      "outputs": [
        {
          "internalType": "address",
          "name": "",
          "type": "address"
        }
      ],
      "payable": false,
      "stateMutability": "view",
      "type": "function"
    },
    {
      "constant": true,
      "inputs": [],
      "name": "producerContractAddress",
      "outputs": [
        {
          "internalType": "address",
          "name": "",
          "type": "address"
        }
      ],
      "payable": false,
      "stateMutability": "view",
      "type": "function"
    },
    {
      "constant": false,
      "inputs": [
        {
          "internalType": "string",
          "name": "_name",
          "type": "string"
        }
      ],
      "name": "addRecycleUnit",
      "outputs": [],
      "payable": false,
      "stateMutability": "nonpayable",
      "type": "function"
    },
    {
      "constant": false,
      "inputs": [],
      "name": "createCollectionCentreInstance",
      "outputs": [],
      "payable": false,
      "stateMutability": "nonpayable",
      "type": "function"
    },
    {
      "constant": false,
      "inputs": [],
      "name": "createProducerInstance",
      "outputs": [],
      "payable": false,
      "stateMutability": "nonpayable",
      "type": "function"
    },
    {
      "constant": false,
      "inputs": [],
      "name": "receiveItemCollectionCentre",
      "outputs": [],
      "payable": false,
      "stateMutability": "nonpayable",
      "type": "function"
    }
  ],
  "bytecode": "0x608060405234801561001057600080fd5b506040516108373803806108378339818101604052602081101561003357600080fd5b810190808051906020019092919050505033600360006101000a81548173ffffffffffffffffffffffffffffffffffffffff021916908373ffffffffffffffffffffffffffffffffffffffff16021790555080600460006101000a81548173ffffffffffffffffffffffffffffffffffffffff021916908373ffffffffffffffffffffffffffffffffffffffff16021790555050610761806100d66000396000f3fe608060405234801561001057600080fd5b506004361061007d5760003560e01c8063976e0a611161005b578063976e0a61146101a5578063a24fa5c5146101af578063bf0001b1146101b9578063e11e7906146102035761007d565b806311c9a94e146100825780634b7e2c81146100cc578063691f2ad9146100ea575b600080fd5b61008a61020d565b604051808273ffffffffffffffffffffffffffffffffffffffff1673ffffffffffffffffffffffffffffffffffffffff16815260200191505060405180910390f35b6100d4610233565b6040518082815260200191505060405180910390f35b6101a36004803603602081101561010057600080fd5b810190808035906020019064010000000081111561011d57600080fd5b82018360208201111561012f57600080fd5b8035906020019184600183028401116401000000008311171561015157600080fd5b91908080601f016020809104026020016040519081016040528093929190818152602001838380828437600081840152601f19601f820116905080830192505050505050509192919290505050610239565b005b6101ad6102a3565b005b6101b7610481565b005b6101c1610483565b604051808273ffffffffffffffffffffffffffffffffffffffff1673ffffffffffffffffffffffffffffffffffffffff16815260200191505060405180910390f35b61020b6104a9565b005b600660009054906101000a900473ffffffffffffffffffffffffffffffffffffffff1681565b60015481565b6001600081548092919060010191905055506040518060400160405280600154815260200182815250600080600154815260200190815260200160002060008201518160000155602082015181600101908051906020019061029c929190610687565b5090505050565b600360009054906101000a900473ffffffffffffffffffffffffffffffffffffffff1673ffffffffffffffffffffffffffffffffffffffff163373ffffffffffffffffffffffffffffffffffffffff16146102fd57600080fd5b600460009054906101000a900473ffffffffffffffffffffffffffffffffffffffff1673ffffffffffffffffffffffffffffffffffffffff1663bf40fac16040518163ffffffff1660e01b81526004018080602001828103825260088152602001807f50726f647563657200000000000000000000000000000000000000000000000081525060200191505060206040518083038186803b1580156103a157600080fd5b505afa1580156103b5573d6000803e3d6000fd5b505050506040513d60208110156103cb57600080fd5b8101908080519060200190929190505050600660006101000a81548173ffffffffffffffffffffffffffffffffffffffff021916908373ffffffffffffffffffffffffffffffffffffffff160217905550600660009054906101000a900473ffffffffffffffffffffffffffffffffffffffff16600760006101000a81548173ffffffffffffffffffffffffffffffffffffffff021916908373ffffffffffffffffffffffffffffffffffffffff160217905550565b565b600260009054906101000a900473ffffffffffffffffffffffffffffffffffffffff1681565b600360009054906101000a900473ffffffffffffffffffffffffffffffffffffffff1673ffffffffffffffffffffffffffffffffffffffff163373ffffffffffffffffffffffffffffffffffffffff161461050357600080fd5b600460009054906101000a900473ffffffffffffffffffffffffffffffffffffffff1673ffffffffffffffffffffffffffffffffffffffff1663bf40fac16040518163ffffffff1660e01b81526004018080602001828103825260108152602001807f436f6c6c656374696f6e43656e7472650000000000000000000000000000000081525060200191505060206040518083038186803b1580156105a757600080fd5b505afa1580156105bb573d6000803e3d6000fd5b505050506040513d60208110156105d157600080fd5b8101908080519060200190929190505050600260006101000a81548173ffffffffffffffffffffffffffffffffffffffff021916908373ffffffffffffffffffffffffffffffffffffffff160217905550600260009054906101000a900473ffffffffffffffffffffffffffffffffffffffff16600560006101000a81548173ffffffffffffffffffffffffffffffffffffffff021916908373ffffffffffffffffffffffffffffffffffffffff160217905550565b828054600181600116156101000203166002900490600052602060002090601f016020900481019282601f106106c857805160ff19168380011785556106f6565b828001600101855582156106f6579182015b828111156106f55782518255916020019190600101906106da565b5b5090506107039190610707565b5090565b61072991905b8082111561072557600081600090555060010161070d565b5090565b9056fea265627a7a72315820aacef49b4e1de462ba965359395dca6d2b4e735b281172524c92cb9b4163b47864736f6c634300050c0032",
  "source": "pragma solidity >=0.4.21 <0.7.0;\r\nimport \"./AddressManager.sol\";\r\nimport \"./CollectionCentre.sol\";\r\nimport \"./Producer.sol\";\r\n\r\ncontract RecycleUnit{\r\n\r\n    mapping(uint => RecycleUnitDetails) RecycleUnits;\r\n    uint public RecycleUnitCount;\r\n    address public collectionCentreContractAddress;\r\n    address owner;\r\n    AddressManager amInstance;\r\n    CollectionCentre collectionCentreInstance;\r\n    address public producerContractAddress;\r\n    Producer producerInstance;\r\n\r\n    modifier onlyOwner(){\r\n        require(msg.sender == owner);\r\n        _;\r\n    }\r\n\r\n    constructor(address _addressManager) public{\r\n        owner = msg.sender;\r\n        amInstance = AddressManager(address(_addressManager));\r\n    }\r\n\r\n    struct RecycleUnitDetails{\r\n        uint _id;\r\n        string _name;\r\n    }\r\n\r\n    function addRecycleUnit(string memory _name) public{\r\n        RecycleUnitCount++;\r\n        RecycleUnits[RecycleUnitCount] = RecycleUnitDetails(RecycleUnitCount, _name);\r\n    }\r\n\r\n    function createCollectionCentreInstance() public onlyOwner{\r\n        collectionCentreContractAddress = amInstance.getAddress(\"CollectionCentre\");\r\n        collectionCentreInstance = CollectionCentre(address(collectionCentreContractAddress));\r\n    }\r\n    \r\n    function createProducerInstance() public onlyOwner{\r\n        producerContractAddress = amInstance.getAddress(\"Producer\");\r\n        producerInstance = Producer(address(producerContractAddress));\r\n    }\r\n\r\n    function receiveItemCollectionCentre() public{\r\n\r\n    }\r\n}\r\n",
  "sourcePath": "C:\\Heramb\\e-waste-management-using-blockchain\\contracts\\RecycleUnit.sol",
  "compiler": {
    "name": "solc",
    "version": "0.5.12+commit.7709ece9.Emscripten.clang"
  },
  "schemaVersion": "3.0.19",
  "updatedAt": "2020-03-05T14:33:58.633Z",
  "devdoc": {
    "methods": {}
  },
  "userdoc": {
    "methods": {}
  }
}