{
  "contractName": "Retailer",
  "abi": [
    {
      "inputs": [
        {
          "internalType": "address",
          "name": "_addressManager",
          "type": "address"
        }
      ],
      "payable": false,
      "stateMutability": "nonpayable",
      "type": "constructor"
    },
    {
      "constant": true,
      "inputs": [],
      "name": "consumerContractAddress",
      "outputs": [
        {
          "internalType": "address",
          "name": "",
          "type": "address"
        }
      ],
      "payable": false,
      "stateMutability": "view",
      "type": "function"
    },
    {
      "constant": true,
      "inputs": [],
      "name": "producerContractAddress",
      "outputs": [
        {
          "internalType": "address",
          "name": "",
          "type": "address"
        }
      ],
      "payable": false,
      "stateMutability": "view",
      "type": "function"
    },
    {
      "constant": true,
      "inputs": [],
      "name": "retailerCount",
      "outputs": [
        {
          "internalType": "uint256",
          "name": "",
          "type": "uint256"
        }
      ],
      "payable": false,
      "stateMutability": "view",
      "type": "function"
    },
    {
      "constant": false,
      "inputs": [
        {
          "internalType": "string",
          "name": "_name",
          "type": "string"
        }
      ],
      "name": "addRetailer",
      "outputs": [],
      "payable": false,
      "stateMutability": "nonpayable",
      "type": "function"
    },
    {
      "constant": false,
      "inputs": [],
      "name": "createConsumerInstance",
      "outputs": [],
      "payable": false,
      "stateMutability": "nonpayable",
      "type": "function"
    },
    {
      "constant": false,
      "inputs": [],
      "name": "createProducerInstance",
      "outputs": [],
      "payable": false,
      "stateMutability": "nonpayable",
      "type": "function"
    },
    {
      "constant": false,
      "inputs": [
        {
          "internalType": "uint256",
          "name": "_productId",
          "type": "uint256"
        }
      ],
      "name": "buyFromProducer",
      "outputs": [],
      "payable": false,
      "stateMutability": "nonpayable",
      "type": "function"
    },
    {
      "constant": false,
      "inputs": [],
      "name": "makeConsumerPayment",
      "outputs": [],
      "payable": true,
      "stateMutability": "payable",
      "type": "function"
    },
    {
      "constant": false,
      "inputs": [],
      "name": "receiveProducerPayment",
      "outputs": [],
      "payable": true,
      "stateMutability": "payable",
      "type": "function"
    },
    {
      "constant": false,
      "inputs": [],
      "name": "receiveConsumerItem",
      "outputs": [],
      "payable": false,
      "stateMutability": "nonpayable",
      "type": "function"
    },
    {
      "constant": false,
      "inputs": [],
      "name": "sellItemProducer",
      "outputs": [],
      "payable": false,
      "stateMutability": "nonpayable",
      "type": "function"
    }
  ],
  "bytecode": "0x608060405234801561001057600080fd5b5060405161097a38038061097a8339818101604052602081101561003357600080fd5b810190808051906020019092919050505033600460006101000a81548173ffffffffffffffffffffffffffffffffffffffff021916908373ffffffffffffffffffffffffffffffffffffffff16021790555080600560006101000a81548173ffffffffffffffffffffffffffffffffffffffff021916908373ffffffffffffffffffffffffffffffffffffffff160217905550506108a4806100d66000396000f3fe60806040526004361061009c5760003560e01c806386888b601161006457806386888b601461016857806395d0040714610172578063976e0a611461023a578063a76603c614610251578063c70ccd70146102a8578063d2138547146102e35761009c565b806311c9a94e146100a157806347c16a7f146100f857806363bc22931461012357806381610b251461013a5780638615353b14610151575b600080fd5b3480156100ad57600080fd5b506100b66102ed565b604051808273ffffffffffffffffffffffffffffffffffffffff1673ffffffffffffffffffffffffffffffffffffffff16815260200191505060405180910390f35b34801561010457600080fd5b5061010d610313565b6040518082815260200191505060405180910390f35b34801561012f57600080fd5b50610138610319565b005b34801561014657600080fd5b5061014f6104f7565b005b34801561015d57600080fd5b506101666104f9565b005b6101706104fb565b005b34801561017e57600080fd5b506102386004803603602081101561019557600080fd5b81019080803590602001906401000000008111156101b257600080fd5b8201836020820111156101c457600080fd5b803590602001918460018302840111640100000000831117156101e657600080fd5b91908080601f016020809104026020016040519081016040528093929190818152602001838380828437600081840152601f19601f8201169050808301925050505050505091929192905050506104fd565b005b34801561024657600080fd5b5061024f6105c1565b005b34801561025d57600080fd5b5061026661079f565b604051808273ffffffffffffffffffffffffffffffffffffffff1673ffffffffffffffffffffffffffffffffffffffff16815260200191505060405180910390f35b3480156102b457600080fd5b506102e1600480360360208110156102cb57600080fd5b81019080803590602001909291905050506107c5565b005b6102eb6107c8565b005b600360009054906101000a900473ffffffffffffffffffffffffffffffffffffffff1681565b60015481565b600460009054906101000a900473ffffffffffffffffffffffffffffffffffffffff1673ffffffffffffffffffffffffffffffffffffffff163373ffffffffffffffffffffffffffffffffffffffff161461037357600080fd5b600560009054906101000a900473ffffffffffffffffffffffffffffffffffffffff1673ffffffffffffffffffffffffffffffffffffffff1663bf40fac16040518163ffffffff1660e01b81526004018080602001828103825260088152602001807f436f6e73756d657200000000000000000000000000000000000000000000000081525060200191505060206040518083038186803b15801561041757600080fd5b505afa15801561042b573d6000803e3d6000fd5b505050506040513d602081101561044157600080fd5b8101908080519060200190929190505050600260006101000a81548173ffffffffffffffffffffffffffffffffffffffff021916908373ffffffffffffffffffffffffffffffffffffffff160217905550600260009054906101000a900473ffffffffffffffffffffffffffffffffffffffff16600660006101000a81548173ffffffffffffffffffffffffffffffffffffffff021916908373ffffffffffffffffffffffffffffffffffffffff160217905550565b565b565b565b600460009054906101000a900473ffffffffffffffffffffffffffffffffffffffff1673ffffffffffffffffffffffffffffffffffffffff163373ffffffffffffffffffffffffffffffffffffffff161461055757600080fd5b600160008154809291906001019190505550604051806040016040528060015481526020018281525060008060015481526020019081526020016000206000820151816000015560208201518160010190805190602001906105ba9291906107ca565b5090505050565b600460009054906101000a900473ffffffffffffffffffffffffffffffffffffffff1673ffffffffffffffffffffffffffffffffffffffff163373ffffffffffffffffffffffffffffffffffffffff161461061b57600080fd5b600560009054906101000a900473ffffffffffffffffffffffffffffffffffffffff1673ffffffffffffffffffffffffffffffffffffffff1663bf40fac16040518163ffffffff1660e01b81526004018080602001828103825260088152602001807f50726f647563657200000000000000000000000000000000000000000000000081525060200191505060206040518083038186803b1580156106bf57600080fd5b505afa1580156106d3573d6000803e3d6000fd5b505050506040513d60208110156106e957600080fd5b8101908080519060200190929190505050600360006101000a81548173ffffffffffffffffffffffffffffffffffffffff021916908373ffffffffffffffffffffffffffffffffffffffff160217905550600360009054906101000a900473ffffffffffffffffffffffffffffffffffffffff16600760006101000a81548173ffffffffffffffffffffffffffffffffffffffff021916908373ffffffffffffffffffffffffffffffffffffffff160217905550565b600260009054906101000a900473ffffffffffffffffffffffffffffffffffffffff1681565b50565b565b828054600181600116156101000203166002900490600052602060002090601f016020900481019282601f1061080b57805160ff1916838001178555610839565b82800160010185558215610839579182015b8281111561083857825182559160200191906001019061081d565b5b509050610846919061084a565b5090565b61086c91905b80821115610868576000816000905550600101610850565b5090565b9056fea265627a7a7231582090473e8ddcea68979e4407997ef1c455a226d555e95a1cc949abe18c840152fc64736f6c63430005100032",
  "source": "pragma solidity ^0.5.16;\nimport \"./AddressManager.sol\";\nimport \"./Consumer.sol\";\nimport \"./Producer.sol\";\n\ncontract Retailer{\n\n    mapping(uint => RetailerDetails) retailers;\n    uint public retailerCount;\n    address public consumerContractAddress;\n    address public producerContractAddress;\n    address owner;\n    AddressManager amInstance;\n    Consumer consumerInstance;\n    Producer producerInstance;\n\n    modifier onlyOwner(){\n        require(msg.sender == owner);\n        _;\n    }\n\n    constructor(address _addressManager) public{\n        owner = msg.sender;\n        amInstance = AddressManager(address(_addressManager));\n    }\n\n    struct RetailerDetails{\n        uint _id;\n        string _name;\n    }\n\n    function addRetailer(string memory _name) public onlyOwner{\n        retailerCount++;\n        retailers[retailerCount] = RetailerDetails(retailerCount, _name);\n    }\n\n    function createConsumerInstance() public onlyOwner{\n        consumerContractAddress = amInstance.getAddress(\"Consumer\");\n        consumerInstance = Consumer(address(consumerContractAddress));\n    }\n    function createProducerInstance() public onlyOwner{\n        producerContractAddress = amInstance.getAddress(\"Producer\");\n        producerInstance = Producer(address(producerContractAddress));\n    }\n\n    function buyFromProducer(uint _productId) public {\n        // producerInstance.sellToRetailer()\n    }\n    \n    function makeConsumerPayment() public payable{\n\n    }\n\n    function receiveProducerPayment() public payable{\n\n    }\n\n    function receiveConsumerItem() public{\n\n    }\n\n    function sellItemProducer() public{\n        \n    }\n}\n",
  "sourcePath": "/home/dkhost/Desktop/project_e-waste/contracts/Retailer.sol",
  "compiler": {
    "name": "solc",
    "version": "0.5.16+commit.9c3226ce.Emscripten.clang"
  },
  "schemaVersion": "3.0.23",
  "updatedAt": "2020-03-04T08:11:32.495Z",
  "networkType": "ethereum",
  "devdoc": {
    "methods": {}
  },
  "userdoc": {
    "methods": {}
  }
}